{
  "_format": "hh-sol-artifact-1",
  "contractName": "CrowdFundingV2",
  "sourceName": "contracts/ContractV2.sol",
  "abi": [
    {
      "inputs": [],
      "stateMutability": "nonpayable",
      "type": "constructor"
    },
    {
      "anonymous": false,
      "inputs": [
        {
          "indexed": true,
          "internalType": "uint256",
          "name": "campaignId",
          "type": "uint256"
        },
        {
          "indexed": false,
          "internalType": "address",
          "name": "campaignCreator",
          "type": "address"
        },
        {
          "indexed": false,
          "internalType": "string",
          "name": "title",
          "type": "string"
        }
      ],
      "name": "CampaignCreated",
      "type": "event"
    },
    {
      "anonymous": false,
      "inputs": [
        {
          "indexed": true,
          "internalType": "uint256",
          "name": "campaignId",
          "type": "uint256"
        },
        {
          "indexed": false,
          "internalType": "address",
          "name": "contributor",
          "type": "address"
        },
        {
          "indexed": false,
          "internalType": "uint256",
          "name": "amount",
          "type": "uint256"
        }
      ],
      "name": "ContributionMade",
      "type": "event"
    },
    {
      "anonymous": false,
      "inputs": [
        {
          "indexed": false,
          "internalType": "string",
          "name": "message",
          "type": "string"
        }
      ],
      "name": "Debug",
      "type": "event"
    },
    {
      "anonymous": false,
      "inputs": [
        {
          "indexed": true,
          "internalType": "uint256",
          "name": "campaignId",
          "type": "uint256"
        },
        {
          "indexed": false,
          "internalType": "address",
          "name": "claimant",
          "type": "address"
        },
        {
          "indexed": false,
          "internalType": "uint256",
          "name": "amount",
          "type": "uint256"
        }
      ],
      "name": "FundsClaimed",
      "type": "event"
    },
    {
      "inputs": [
        {
          "internalType": "uint256",
          "name": "",
          "type": "uint256"
        }
      ],
      "name": "campaigns",
      "outputs": [
        {
          "internalType": "uint256",
          "name": "id",
          "type": "uint256"
        },
        {
          "internalType": "address",
          "name": "campaignCreator",
          "type": "address"
        },
        {
          "internalType": "string",
          "name": "title",
          "type": "string"
        },
        {
          "internalType": "string",
          "name": "description",
          "type": "string"
        },
        {
          "internalType": "string",
          "name": "imageURI",
          "type": "string"
        },
        {
          "internalType": "uint256",
          "name": "goal",
          "type": "uint256"
        },
        {
          "internalType": "uint256",
          "name": "startsAt",
          "type": "uint256"
        },
        {
          "internalType": "uint256",
          "name": "endsAt",
          "type": "uint256"
        },
        {
          "internalType": "bool",
          "name": "isSuccessful",
          "type": "bool"
        },
        {
          "internalType": "uint256",
          "name": "totalContributions",
          "type": "uint256"
        }
      ],
      "stateMutability": "view",
      "type": "function"
    },
    {
      "inputs": [
        {
          "internalType": "uint256",
          "name": "campaignId",
          "type": "uint256"
        }
      ],
      "name": "claim",
      "outputs": [],
      "stateMutability": "nonpayable",
      "type": "function"
    },
    {
      "inputs": [
        {
          "internalType": "uint256",
          "name": "campaignId",
          "type": "uint256"
        }
      ],
      "name": "claimV2",
      "outputs": [],
      "stateMutability": "payable",
      "type": "function"
    },
    {
      "inputs": [
        {
          "internalType": "uint256",
          "name": "campaignId",
          "type": "uint256"
        }
      ],
      "name": "contribute",
      "outputs": [],
      "stateMutability": "payable",
      "type": "function"
    },
    {
      "inputs": [
        {
          "internalType": "string",
          "name": "title",
          "type": "string"
        },
        {
          "internalType": "string",
          "name": "description",
          "type": "string"
        },
        {
          "internalType": "string",
          "name": "imageURI",
          "type": "string"
        },
        {
          "internalType": "uint256",
          "name": "goal",
          "type": "uint256"
        },
        {
          "internalType": "uint256",
          "name": "startsAt",
          "type": "uint256"
        },
        {
          "internalType": "uint256",
          "name": "endsAt",
          "type": "uint256"
        }
      ],
      "name": "createCampaign",
      "outputs": [],
      "stateMutability": "payable",
      "type": "function"
    },
    {
      "inputs": [],
      "name": "currentTime",
      "outputs": [
        {
          "internalType": "uint256",
          "name": "",
          "type": "uint256"
        }
      ],
      "stateMutability": "view",
      "type": "function"
    },
    {
      "inputs": [],
      "name": "getAllCampaigns",
      "outputs": [
        {
          "components": [
            {
              "internalType": "uint256",
              "name": "id",
              "type": "uint256"
            },
            {
              "internalType": "address",
              "name": "campaignCreator",
              "type": "address"
            },
            {
              "internalType": "string",
              "name": "title",
              "type": "string"
            },
            {
              "internalType": "string",
              "name": "description",
              "type": "string"
            },
            {
              "internalType": "string",
              "name": "imageURI",
              "type": "string"
            },
            {
              "internalType": "uint256",
              "name": "goal",
              "type": "uint256"
            },
            {
              "internalType": "uint256",
              "name": "startsAt",
              "type": "uint256"
            },
            {
              "internalType": "uint256",
              "name": "endsAt",
              "type": "uint256"
            },
            {
              "internalType": "bool",
              "name": "isSuccessful",
              "type": "bool"
            },
            {
              "internalType": "uint256",
              "name": "totalContributions",
              "type": "uint256"
            },
            {
              "internalType": "address[]",
              "name": "contributors",
              "type": "address[]"
            },
            {
              "internalType": "uint256[]",
              "name": "contributionAmounts",
              "type": "uint256[]"
            }
          ],
          "internalType": "struct CrowdFundingV2.Campaign[]",
          "name": "",
          "type": "tuple[]"
        }
      ],
      "stateMutability": "view",
      "type": "function"
    },
    {
      "inputs": [
        {
          "internalType": "uint256",
          "name": "campaignId",
          "type": "uint256"
        }
      ],
      "name": "getCampaignDetails",
      "outputs": [
        {
          "internalType": "uint256",
          "name": "id",
          "type": "uint256"
        },
        {
          "internalType": "address",
          "name": "campaignCreator",
          "type": "address"
        },
        {
          "internalType": "string",
          "name": "title",
          "type": "string"
        },
        {
          "internalType": "string",
          "name": "description",
          "type": "string"
        },
        {
          "internalType": "string",
          "name": "imageURI",
          "type": "string"
        },
        {
          "internalType": "uint256",
          "name": "goal",
          "type": "uint256"
        },
        {
          "internalType": "uint256",
          "name": "startsAt",
          "type": "uint256"
        },
        {
          "internalType": "uint256",
          "name": "endsAt",
          "type": "uint256"
        },
        {
          "internalType": "bool",
          "name": "isSuccessful",
          "type": "bool"
        },
        {
          "internalType": "uint256",
          "name": "totalContributions",
          "type": "uint256"
        },
        {
          "internalType": "address[]",
          "name": "contributors",
          "type": "address[]"
        },
        {
          "internalType": "uint256[]",
          "name": "contributionAmounts",
          "type": "uint256[]"
        }
      ],
      "stateMutability": "view",
      "type": "function"
    },
    {
      "inputs": [],
      "name": "getLatestCampaigns",
      "outputs": [
        {
          "components": [
            {
              "internalType": "uint256",
              "name": "id",
              "type": "uint256"
            },
            {
              "internalType": "address",
              "name": "campaignCreator",
              "type": "address"
            },
            {
              "internalType": "string",
              "name": "title",
              "type": "string"
            },
            {
              "internalType": "string",
              "name": "description",
              "type": "string"
            },
            {
              "internalType": "string",
              "name": "imageURI",
              "type": "string"
            },
            {
              "internalType": "uint256",
              "name": "goal",
              "type": "uint256"
            },
            {
              "internalType": "uint256",
              "name": "startsAt",
              "type": "uint256"
            },
            {
              "internalType": "uint256",
              "name": "endsAt",
              "type": "uint256"
            },
            {
              "internalType": "bool",
              "name": "isSuccessful",
              "type": "bool"
            },
            {
              "internalType": "uint256",
              "name": "totalContributions",
              "type": "uint256"
            },
            {
              "internalType": "address[]",
              "name": "contributors",
              "type": "address[]"
            },
            {
              "internalType": "uint256[]",
              "name": "contributionAmounts",
              "type": "uint256[]"
            }
          ],
          "internalType": "struct CrowdFundingV2.Campaign[]",
          "name": "",
          "type": "tuple[]"
        }
      ],
      "stateMutability": "view",
      "type": "function"
    },
    {
      "inputs": [
        {
          "internalType": "uint256",
          "name": "campaignId",
          "type": "uint256"
        }
      ],
      "name": "getTotalContributions",
      "outputs": [
        {
          "internalType": "uint256",
          "name": "",
          "type": "uint256"
        }
      ],
      "stateMutability": "view",
      "type": "function"
    },
    {
      "stateMutability": "payable",
      "type": "receive"
    }
  ],
  "bytecode": "0x60a0604052600160005534801561001557600080fd5b50336080526080516123cc61004a6000396000818161088e015281816109f701528181610b160152610b8701526123cc6000f3fe6080604052600436106100955760003560e01c806386cdf6041161005957806386cdf604146101ae578063b4d40af1146101d0578063c1cbbca7146101e5578063d18e81b3146101f8578063d993de621461020d57600080fd5b8063141961bc146100f957806327f2b91d14610138578063379607f51461014d5780634d269f4e1461016d5780635bd1baaf1461018057600080fd5b366100f4577f7cdb51e9dbbc205231228146c3246e7f914aa6d4a33170e43ecc8e3593481d1a6040516100ea906020808252600e908201526d119d5b991cc81c9958d95a5d995960921b604082015260600190565b60405180910390a1005b600080fd5b34801561010557600080fd5b50610119610114366004611c68565b610245565b60405161012f9a99989796959493929190611cc7565b60405180910390f35b61014b610146366004611def565b61044d565b005b34801561015957600080fd5b5061014b610168366004611c68565b610833565b61014b61017b366004611c68565b610abb565b34801561018c57600080fd5b506101a061019b366004611c68565b610d31565b60405190815260200161012f565b3480156101ba57600080fd5b506101c3610d5f565b60405161012f9190611f09565b3480156101dc57600080fd5b506101c3611092565b61014b6101f3366004611c68565b61153a565b34801561020457600080fd5b506101a06117fc565b34801561021957600080fd5b5061022d610228366004611c68565b61181b565b60405161012f9c9b9a9998979695949392919061203f565b6001818154811061025557600080fd5b60009182526020909120600c90910201805460018201546002830180549294506001600160a01b03909116929161028b906120f7565b80601f01602080910402602001604051908101604052809291908181526020018280546102b7906120f7565b80156103045780601f106102d957610100808354040283529160200191610304565b820191906000526020600020905b8154815290600101906020018083116102e757829003601f168201915b505050505090806003018054610319906120f7565b80601f0160208091040260200160405190810160405280929190818152602001828054610345906120f7565b80156103925780601f1061036757610100808354040283529160200191610392565b820191906000526020600020905b81548152906001019060200180831161037557829003601f168201915b5050505050908060040180546103a7906120f7565b80601f01602080910402602001604051908101604052809291908181526020018280546103d3906120f7565b80156104205780601f106103f557610100808354040283529160200191610420565b820191906000526020600020905b81548152906001019060200180831161040357829003601f168201915b505050506005830154600684015460078501546008860154600990960154949592949193509160ff16908a565b60008651116104a35760405162461bcd60e51b815260206004820152601760248201527f5469746c65206d757374206e6f7420626520656d70747900000000000000000060448201526064015b60405180910390fd5b60008551116104f45760405162461bcd60e51b815260206004820152601d60248201527f4465736372697074696f6e206d757374206e6f7420626520656d707479000000604482015260640161049a565b60008451116105455760405162461bcd60e51b815260206004820152601b60248201527f496d61676520555249206d757374206e6f7420626520656d7074790000000000604482015260640161049a565b600083116105955760405162461bcd60e51b815260206004820152601e60248201527f476f616c206d7573742062652067726561746572207468616e207a65726f0000604482015260640161049a565b4281116105fc5760405162461bcd60e51b815260206004820152602f60248201527f456e64732074696d65206d7573742062652067726561746572207468616e207460448201526e68652063757272656e742074696d6560881b606482015260840161049a565b600160405180610180016040528060008081548092919061061c90612147565b919050558152602001336001600160a01b0316815260200188815260200187815260200186815260200185815260200184815260200183815260200160001515815260200160008152602001600067ffffffffffffffff81111561068257610682611d4c565b6040519080825280602002602001820160405280156106ab578160200160208202803683370190505b50815260200160006040519080825280602002602001820160405280156106dc578160200160208202803683370190505b50905281546001808201845560009384526020938490208351600c909302019182559282015192810180546001600160a01b0319166001600160a01b03909416939093179092556040810151909190600282019061073a90826121b1565b506060820151600382019061074f90826121b1565b506080820151600482019061076490826121b1565b5060a0820151600582015560c0820151600682015560e0820151600782015561010082015160088201805460ff1916911515919091179055610120820151600982015561014082015180516107c391600a840191602090910190611bb3565b5061016082015180516107e091600b840191602090910190611c18565b50505060016000546107f29190612271565b7fc04c663886cae794dc52158f70fe6c8ee3b0140d4f48647282f9b693ff688a65338860405161082392919061228a565b60405180910390a2505050505050565b60025460ff16156108565760405162461bcd60e51b815260040161049a906122b6565b6002805460ff191660019081179091558054600091908390811061087c5761087c6122de565b90600052602060002090600c020190507f00000000000000000000000000000000000000000000000000000000000000006001600160a01b0316336001600160a01b031614806108d8575060018101546001600160a01b031633145b6108f45760405162461bcd60e51b815260040161049a906122f4565b8060050154816009015410156109485760405162461bcd60e51b815260206004820152601960248201527810d85b5c185a59db8819dbd85b081b9bdd081c995858da1959603a1b604482015260640161049a565b600981018054600091829055906103e861096383600561234a565b61096d9190612361565b61097e906611c37937e08000612383565b90508082116109db5760405162461bcd60e51b815260206004820152602360248201527f496e73756666696369656e742066756e647320746f20636f766572207468652060448201526266656560e81b606482015260840161049a565b60006109e78284612271565b6040519091506001600160a01b037f0000000000000000000000000000000000000000000000000000000000000000169083156108fc029084906000818181858888f19350505050158015610a40573d6000803e3d6000fd5b50604080513381526020810183905286917fa4eb50103b0591feb0bc913f479d92af5eb7ea33e8c397b49bab52ce6af26cb5910160405180910390a2604051339082156108fc029083906000818181858888f19350505050158015610aa9573d6000803e3d6000fd5b50506002805460ff1916905550505050565b60025460ff1615610ade5760405162461bcd60e51b815260040161049a906122b6565b6002805460ff1916600190811790915580546000919083908110610b0457610b046122de565b90600052602060002090600c020190507f00000000000000000000000000000000000000000000000000000000000000006001600160a01b0316336001600160a01b03161480610b60575060018101546001600160a01b031633145b610b7c5760405162461bcd60e51b815260040161049a906122f4565b336001600160a01b037f0000000000000000000000000000000000000000000000000000000000000000161480610bbb57508060050154816009015410155b610c035760405162461bcd60e51b815260206004820152601960248201527810d85b5c185a59db8819dbd85b081b9bdd081c995858da1959603a1b604482015260640161049a565b600981018054600091829055906611c37937e0800090610c238284612271565b905060005a905060005a610c379083612271565b90506000610c453a8361234a565b9050808411610ca75760405162461bcd60e51b815260206004820152602860248201527f496e73756666696369656e742066756e647320746f20636f766572207468652060448201526719d85cc818dbdcdd60c21b606482015260840161049a565b610cb18185612271565b604080513381526020810183905291955089917fa4eb50103b0591feb0bc913f479d92af5eb7ea33e8c397b49bab52ce6af26cb5910160405180910390a2604051339085156108fc029086906000818181858888f19350505050158015610d1c573d6000803e3d6000fd5b50506002805460ff1916905550505050505050565b600060018281548110610d4657610d466122de565b90600052602060002090600c0201600901549050919050565b60606001805480602002602001604051908101604052809291908181526020016000905b828210156110895760008481526020908190206040805161018081018252600c86029092018054835260018101546001600160a01b03169383019390935260028301805492939291840191610dd7906120f7565b80601f0160208091040260200160405190810160405280929190818152602001828054610e03906120f7565b8015610e505780601f10610e2557610100808354040283529160200191610e50565b820191906000526020600020905b815481529060010190602001808311610e3357829003601f168201915b50505050508152602001600382018054610e69906120f7565b80601f0160208091040260200160405190810160405280929190818152602001828054610e95906120f7565b8015610ee25780601f10610eb757610100808354040283529160200191610ee2565b820191906000526020600020905b815481529060010190602001808311610ec557829003601f168201915b50505050508152602001600482018054610efb906120f7565b80601f0160208091040260200160405190810160405280929190818152602001828054610f27906120f7565b8015610f745780601f10610f4957610100808354040283529160200191610f74565b820191906000526020600020905b815481529060010190602001808311610f5757829003601f168201915b505050505081526020016005820154815260200160068201548152602001600782015481526020016008820160009054906101000a900460ff1615151515815260200160098201548152602001600a820180548060200260200160405190810160405280929190818152602001828054801561101957602002820191906000526020600020905b81546001600160a01b03168152600190910190602001808311610ffb575b50505050508152602001600b820180548060200260200160405190810160405280929190818152602001828054801561107157602002820191906000526020600020905b81548152602001906001019080831161105d575b50505050508152505081526020019060010190610d83565b50505050905090565b6001546060906110da5760405162461bcd60e51b815260206004820152601360248201527227379031b0b6b830b4b3b739903337bab7321760691b604482015260640161049a565b6001546000906004106110ee5760006110fd565b6001546110fd90600490612271565b600154909150600090611111908390612271565b905060008167ffffffffffffffff81111561112e5761112e611d4c565b6040519080825280602002602001820160405280156111ce57816020015b6111bb6040518061018001604052806000815260200160006001600160a01b031681526020016060815260200160608152602001606081526020016000815260200160008152602001600081526020016000151581526020016000815260200160608152602001606081525090565b81526020019060019003908161114c5790505b50905060005b82811015611532576001805482906111ed908390612271565b6111f79190612271565b81548110611207576112076122de565b90600052602060002090600c020160405180610180016040529081600082015481526020016001820160009054906101000a90046001600160a01b03166001600160a01b03166001600160a01b0316815260200160028201805461126a906120f7565b80601f0160208091040260200160405190810160405280929190818152602001828054611296906120f7565b80156112e35780601f106112b8576101008083540402835291602001916112e3565b820191906000526020600020905b8154815290600101906020018083116112c657829003601f168201915b505050505081526020016003820180546112fc906120f7565b80601f0160208091040260200160405190810160405280929190818152602001828054611328906120f7565b80156113755780601f1061134a57610100808354040283529160200191611375565b820191906000526020600020905b81548152906001019060200180831161135857829003601f168201915b5050505050815260200160048201805461138e906120f7565b80601f01602080910402602001604051908101604052809291908181526020018280546113ba906120f7565b80156114075780601f106113dc57610100808354040283529160200191611407565b820191906000526020600020905b8154815290600101906020018083116113ea57829003601f168201915b505050505081526020016005820154815260200160068201548152602001600782015481526020016008820160009054906101000a900460ff1615151515815260200160098201548152602001600a82018054806020026020016040519081016040528092919081815260200182805480156114ac57602002820191906000526020600020905b81546001600160a01b0316815260019091019060200180831161148e575b50505050508152602001600b820180548060200260200160405190810160405280929190818152602001828054801561150457602002820191906000526020600020905b8154815260200190600101908083116114f0575b50505050508152505082828151811061151f5761151f6122de565b60209081029190910101526001016111d4565b509392505050565b60025460ff161561155d5760405162461bcd60e51b815260040161049a906122b6565b6002805460ff1916600190811790915580546000919083908110611583576115836122de565b90600052602060002090600c02019050600034116115f95760405162461bcd60e51b815260206004820152602d60248201527f436f6e747269627574696f6e20616d6f756e74206d757374206265206772656160448201526c746572207468616e207a65726f60981b606482015260840161049a565b80600601544210158015611611575080600701544211155b6116565760405162461bcd60e51b815260206004820152601660248201527543616d706169676e206973206e6f742061637469766560501b604482015260640161049a565b80600701548160060154106116ad5760405162461bcd60e51b815260206004820152601760248201527f496e76616c69642063616d706169676e20706572696f64000000000000000000604482015260640161049a565b6000816009015482600501546116c39190612271565b90508034116116eb57348260090160008282546116e09190612383565b909155506117719050565b60006116f78234612271565b905060006117058234612271565b604051909150339083156108fc029084906000818181858888f19350505050158015611735573d6000803e3d6000fd5b508084600901600082825461174a9190612383565b9091555050600584015460098501541061176e5760088401805460ff191660011790555b50505b600a82018054600180820183556000928352602080842090920180546001600160a01b03191633908117909155600b860180549283018155845292829020349101819055604080519384529183015284917f0a4a91237423e0a1766a761c7cb029311d8b95d6b1b81db1b949a70c98b4e08e910160405180910390a250506002805460ff1916905550565b600061180a426103e861234a565b611816906103e8612383565b905090565b60008060608060606000806000806000606080600060018e81548110611843576118436122de565b90600052602060002090600c020160405180610180016040529081600082015481526020016001820160009054906101000a90046001600160a01b03166001600160a01b03166001600160a01b031681526020016002820180546118a6906120f7565b80601f01602080910402602001604051908101604052809291908181526020018280546118d2906120f7565b801561191f5780601f106118f45761010080835404028352916020019161191f565b820191906000526020600020905b81548152906001019060200180831161190257829003601f168201915b50505050508152602001600382018054611938906120f7565b80601f0160208091040260200160405190810160405280929190818152602001828054611964906120f7565b80156119b15780601f10611986576101008083540402835291602001916119b1565b820191906000526020600020905b81548152906001019060200180831161199457829003601f168201915b505050505081526020016004820180546119ca906120f7565b80601f01602080910402602001604051908101604052809291908181526020018280546119f6906120f7565b8015611a435780601f10611a1857610100808354040283529160200191611a43565b820191906000526020600020905b815481529060010190602001808311611a2657829003601f168201915b505050505081526020016005820154815260200160068201548152602001600782015481526020016008820160009054906101000a900460ff1615151515815260200160098201548152602001600a8201805480602002602001604051908101604052809291908181526020018280548015611ae857602002820191906000526020600020905b81546001600160a01b03168152600190910190602001808311611aca575b50505050508152602001600b8201805480602002602001604051908101604052809291908181526020018280548015611b4057602002820191906000526020600020905b815481526020019060010190808311611b2c575b5050505050815250509050806000015181602001518260400151836060015184608001518560a001518660c001518760e001518861010001518961012001518a61014001518b61016001519c509c509c509c509c509c509c509c509c509c509c509c505091939597999b5091939597999b565b828054828255906000526020600020908101928215611c08579160200282015b82811115611c0857825182546001600160a01b0319166001600160a01b03909116178255602090920191600190910190611bd3565b50611c14929150611c53565b5090565b828054828255906000526020600020908101928215611c08579160200282015b82811115611c08578251825591602001919060010190611c38565b5b80821115611c145760008155600101611c54565b600060208284031215611c7a57600080fd5b5035919050565b6000815180845260005b81811015611ca757602081850181015186830182015201611c8b565b506000602082860101526020601f19601f83011685010191505092915050565b8a81526001600160a01b038a16602082015261014060408201819052600090611cf28382018c611c81565b90508281036060840152611d06818b611c81565b90508281036080840152611d1a818a611c81565b60a0840198909852505060c081019490945260e084019290925215156101008301526101209091015295945050505050565b634e487b7160e01b600052604160045260246000fd5b600082601f830112611d7357600080fd5b813567ffffffffffffffff80821115611d8e57611d8e611d4c565b604051601f8301601f19908116603f01168101908282118183101715611db657611db6611d4c565b81604052838152866020858801011115611dcf57600080fd5b836020870160208301376000602085830101528094505050505092915050565b60008060008060008060c08789031215611e0857600080fd5b863567ffffffffffffffff80821115611e2057600080fd5b611e2c8a838b01611d62565b97506020890135915080821115611e4257600080fd5b611e4e8a838b01611d62565b96506040890135915080821115611e6457600080fd5b50611e7189828a01611d62565b945050606087013592506080870135915060a087013590509295509295509295565b60008151808452602080850194506020840160005b83811015611ecd5781516001600160a01b031687529582019590820190600101611ea8565b509495945050505050565b60008151808452602080850194506020840160005b83811015611ecd57815187529582019590820190600101611eed565b600060208083018184528085518083526040925060408601915060408160051b87010184880160005b8381101561203157603f19898403018552815180518452878101516001600160a01b0316888501528681015161018088860181905290611f7482870182611c81565b91505060608083015186830382880152611f8e8382611c81565b9250505060808083015186830382880152611fa98382611c81565b60a0858101519089015260c0808601519089015260e0808601519089015261010080860151151590890152610120808601519089015261014080860151898303828b015291945092509050611ffe8382611e93565b92505050610160808301519250858203818701525061201d8183611ed8565b968901969450505090860190600101611f32565b509098975050505050505050565b8c81526001600160a01b038c1660208201526101806040820181905260009061206a8382018e611c81565b9050828103606084015261207e818d611c81565b90508281036080840152612092818c611c81565b90508960a08401528860c08401528760e08401526120b561010084018815159052565b856101208401528281036101408401526120cf8186611e93565b90508281036101608401526120e48185611ed8565b9f9e505050505050505050505050505050565b600181811c9082168061210b57607f821691505b60208210810361212b57634e487b7160e01b600052602260045260246000fd5b50919050565b634e487b7160e01b600052601160045260246000fd5b60006001820161215957612159612131565b5060010190565b601f8211156121ac576000816000526020600020601f850160051c810160208610156121895750805b601f850160051c820191505b818110156121a857828155600101612195565b5050505b505050565b815167ffffffffffffffff8111156121cb576121cb611d4c565b6121df816121d984546120f7565b84612160565b602080601f83116001811461221457600084156121fc5750858301515b600019600386901b1c1916600185901b1785556121a8565b600085815260208120601f198616915b8281101561224357888601518255948401946001909101908401612224565b50858210156122615787850151600019600388901b60f8161c191681555b5050505050600190811b01905550565b8181038181111561228457612284612131565b92915050565b6001600160a01b03831681526040602082018190526000906122ae90830184611c81565b949350505050565b6020808252600e908201526d1499595b9d1c985b9d0818d85b1b60921b604082015260600190565b634e487b7160e01b600052603260045260246000fd5b60208082526036908201527f4f6e6c7920746865206f776e6572206f722063616d706169676e2063726561746040820152756f722063616e20636c61696d207468652066756e647360501b606082015260800190565b808202811582820484141761228457612284612131565b60008261237e57634e487b7160e01b600052601260045260246000fd5b500490565b808201808211156122845761228461213156fea2646970667358221220e08b47d1d0000586ebcff7329a0790a3e7786b457384ef8b51ac43c8f4cd99fd64736f6c63430008170033",
  "linkReferences": {},
  "deployedLinkReferences": {}
}