{
  "_format": "hh-sol-artifact-1",
  "contractName": "CrowdFunding",
  "sourceName": "contracts/Contract.sol",
  "abi": [
    {
      "inputs": [],
      "stateMutability": "nonpayable",
      "type": "constructor"
    },
    {
      "anonymous": false,
      "inputs": [
        {
          "indexed": true,
          "internalType": "uint256",
          "name": "campaignId",
          "type": "uint256"
        },
        {
          "indexed": false,
          "internalType": "address",
          "name": "campaignCreator",
          "type": "address"
        },
        {
          "indexed": false,
          "internalType": "string",
          "name": "title",
          "type": "string"
        },
        {
          "indexed": false,
          "internalType": "enum CrowdFunding.STATUS",
          "name": "status",
          "type": "uint8"
        }
      ],
      "name": "CampaignCreated",
      "type": "event"
    },
    {
      "anonymous": false,
      "inputs": [
        {
          "indexed": true,
          "internalType": "uint256",
          "name": "campaignId",
          "type": "uint256"
        },
        {
          "indexed": false,
          "internalType": "address",
          "name": "campaignCreator",
          "type": "address"
        },
        {
          "indexed": false,
          "internalType": "enum CrowdFunding.STATUS",
          "name": "status",
          "type": "uint8"
        }
      ],
      "name": "CampaignDeleted",
      "type": "event"
    },
    {
      "anonymous": false,
      "inputs": [
        {
          "indexed": true,
          "internalType": "uint256",
          "name": "campaignId",
          "type": "uint256"
        },
        {
          "indexed": false,
          "internalType": "address",
          "name": "contributor",
          "type": "address"
        },
        {
          "indexed": false,
          "internalType": "uint256",
          "name": "amount",
          "type": "uint256"
        }
      ],
      "name": "ContributionMade",
      "type": "event"
    },
    {
      "anonymous": false,
      "inputs": [
        {
          "indexed": true,
          "internalType": "uint256",
          "name": "campaignId",
          "type": "uint256"
        },
        {
          "indexed": false,
          "internalType": "address",
          "name": "contributor",
          "type": "address"
        },
        {
          "indexed": false,
          "internalType": "uint256",
          "name": "amount",
          "type": "uint256"
        }
      ],
      "name": "RefundMade",
      "type": "event"
    },
    {
      "inputs": [
        {
          "internalType": "uint256",
          "name": "",
          "type": "uint256"
        }
      ],
      "name": "campaigns",
      "outputs": [
        {
          "internalType": "uint256",
          "name": "id",
          "type": "uint256"
        },
        {
          "internalType": "address",
          "name": "campaignCreator",
          "type": "address"
        },
        {
          "internalType": "string",
          "name": "title",
          "type": "string"
        },
        {
          "internalType": "string",
          "name": "description",
          "type": "string"
        },
        {
          "internalType": "string",
          "name": "imageURI",
          "type": "string"
        },
        {
          "internalType": "uint256",
          "name": "goal",
          "type": "uint256"
        },
        {
          "internalType": "uint256",
          "name": "startsAt",
          "type": "uint256"
        },
        {
          "internalType": "uint256",
          "name": "endsAt",
          "type": "uint256"
        },
        {
          "internalType": "enum CrowdFunding.STATUS",
          "name": "status",
          "type": "uint8"
        },
        {
          "internalType": "uint256",
          "name": "totalContributions",
          "type": "uint256"
        }
      ],
      "stateMutability": "view",
      "type": "function"
    },
    {
      "inputs": [
        {
          "internalType": "uint256",
          "name": "campaignId",
          "type": "uint256"
        }
      ],
      "name": "contribute",
      "outputs": [],
      "stateMutability": "payable",
      "type": "function"
    },
    {
      "inputs": [
        {
          "internalType": "string",
          "name": "title",
          "type": "string"
        },
        {
          "internalType": "string",
          "name": "description",
          "type": "string"
        },
        {
          "internalType": "string",
          "name": "imageURI",
          "type": "string"
        },
        {
          "internalType": "uint256",
          "name": "goal",
          "type": "uint256"
        },
        {
          "internalType": "uint256",
          "name": "endsAt",
          "type": "uint256"
        }
      ],
      "name": "createCampaign",
      "outputs": [],
      "stateMutability": "nonpayable",
      "type": "function"
    },
    {
      "inputs": [],
      "name": "currentTime",
      "outputs": [
        {
          "internalType": "uint256",
          "name": "",
          "type": "uint256"
        }
      ],
      "stateMutability": "view",
      "type": "function"
    },
    {
      "inputs": [
        {
          "internalType": "uint256",
          "name": "campaignId",
          "type": "uint256"
        }
      ],
      "name": "deleteCampaign",
      "outputs": [],
      "stateMutability": "nonpayable",
      "type": "function"
    },
    {
      "inputs": [],
      "name": "getAllCampaigns",
      "outputs": [
        {
          "components": [
            {
              "internalType": "uint256",
              "name": "id",
              "type": "uint256"
            },
            {
              "internalType": "address",
              "name": "campaignCreator",
              "type": "address"
            },
            {
              "internalType": "string",
              "name": "title",
              "type": "string"
            },
            {
              "internalType": "string",
              "name": "description",
              "type": "string"
            },
            {
              "internalType": "string",
              "name": "imageURI",
              "type": "string"
            },
            {
              "internalType": "uint256",
              "name": "goal",
              "type": "uint256"
            },
            {
              "internalType": "uint256",
              "name": "startsAt",
              "type": "uint256"
            },
            {
              "internalType": "uint256",
              "name": "endsAt",
              "type": "uint256"
            },
            {
              "internalType": "enum CrowdFunding.STATUS",
              "name": "status",
              "type": "uint8"
            },
            {
              "internalType": "uint256",
              "name": "totalContributions",
              "type": "uint256"
            },
            {
              "internalType": "address[]",
              "name": "contributors",
              "type": "address[]"
            },
            {
              "internalType": "uint256[]",
              "name": "contributionAmounts",
              "type": "uint256[]"
            }
          ],
          "internalType": "struct CrowdFunding.Campaign[]",
          "name": "",
          "type": "tuple[]"
        }
      ],
      "stateMutability": "view",
      "type": "function"
    },
    {
      "inputs": [
        {
          "internalType": "uint256",
          "name": "campaignId",
          "type": "uint256"
        }
      ],
      "name": "getCampaignDetails",
      "outputs": [
        {
          "internalType": "uint256",
          "name": "id",
          "type": "uint256"
        },
        {
          "internalType": "address",
          "name": "campaignCreator",
          "type": "address"
        },
        {
          "internalType": "string",
          "name": "title",
          "type": "string"
        },
        {
          "internalType": "string",
          "name": "description",
          "type": "string"
        },
        {
          "internalType": "string",
          "name": "imageURI",
          "type": "string"
        },
        {
          "internalType": "uint256",
          "name": "goal",
          "type": "uint256"
        },
        {
          "internalType": "uint256",
          "name": "startsAt",
          "type": "uint256"
        },
        {
          "internalType": "uint256",
          "name": "endsAt",
          "type": "uint256"
        },
        {
          "internalType": "enum CrowdFunding.STATUS",
          "name": "status",
          "type": "uint8"
        },
        {
          "internalType": "uint256",
          "name": "totalContributions",
          "type": "uint256"
        },
        {
          "internalType": "address[]",
          "name": "contributors",
          "type": "address[]"
        },
        {
          "internalType": "uint256[]",
          "name": "contributionAmounts",
          "type": "uint256[]"
        }
      ],
      "stateMutability": "view",
      "type": "function"
    },
    {
      "inputs": [],
      "name": "getLatestCampaigns",
      "outputs": [
        {
          "components": [
            {
              "internalType": "uint256",
              "name": "id",
              "type": "uint256"
            },
            {
              "internalType": "address",
              "name": "campaignCreator",
              "type": "address"
            },
            {
              "internalType": "string",
              "name": "title",
              "type": "string"
            },
            {
              "internalType": "string",
              "name": "description",
              "type": "string"
            },
            {
              "internalType": "string",
              "name": "imageURI",
              "type": "string"
            },
            {
              "internalType": "uint256",
              "name": "goal",
              "type": "uint256"
            },
            {
              "internalType": "uint256",
              "name": "startsAt",
              "type": "uint256"
            },
            {
              "internalType": "uint256",
              "name": "endsAt",
              "type": "uint256"
            },
            {
              "internalType": "enum CrowdFunding.STATUS",
              "name": "status",
              "type": "uint8"
            },
            {
              "internalType": "uint256",
              "name": "totalContributions",
              "type": "uint256"
            },
            {
              "internalType": "address[]",
              "name": "contributors",
              "type": "address[]"
            },
            {
              "internalType": "uint256[]",
              "name": "contributionAmounts",
              "type": "uint256[]"
            }
          ],
          "internalType": "struct CrowdFunding.Campaign[]",
          "name": "",
          "type": "tuple[]"
        }
      ],
      "stateMutability": "view",
      "type": "function"
    },
    {
      "inputs": [
        {
          "internalType": "uint256",
          "name": "campaignId",
          "type": "uint256"
        }
      ],
      "name": "getTotalContributions",
      "outputs": [
        {
          "internalType": "uint256",
          "name": "",
          "type": "uint256"
        }
      ],
      "stateMutability": "view",
      "type": "function"
    }
  ],
  "bytecode": "0x60a0604052600160005534801561001557600080fd5b5033608052608051611f9061003260003960005050611f906000f3fe6080604052600436106100865760003560e01c8063980f2e6611610059578063980f2e661461013c578063b4d40af11461015c578063c1cbbca714610171578063d18e81b314610184578063d993de621461019957600080fd5b8063141961bc1461008b5780635bd1baaf146100ca57806375970193146100f857806386cdf6041461011a575b600080fd5b34801561009757600080fd5b506100ab6100a6366004611864565b6101d1565b6040516100c19a999897969594939291906118fb565b60405180910390f35b3480156100d657600080fd5b506100ea6100e5366004611864565b6103d9565b6040519081526020016100c1565b34801561010457600080fd5b50610118610113366004611864565b610407565b005b34801561012657600080fd5b5061012f6104a2565b6040516100c191906119fb565b34801561014857600080fd5b50610118610157366004611bda565b6107ed565b34801561016857600080fd5b5061012f610be0565b61011861017f366004611864565b611044565b34801561019057600080fd5b506100ea611273565b3480156101a557600080fd5b506101b96101b4366004611864565b611292565b6040516100c19c9b9a99989796959493929190611c74565b600181815481106101e157600080fd5b60009182526020909120600c90910201805460018201546002830180549294506001600160a01b03909116929161021790611d2b565b80601f016020809104026020016040519081016040528092919081815260200182805461024390611d2b565b80156102905780601f1061026557610100808354040283529160200191610290565b820191906000526020600020905b81548152906001019060200180831161027357829003601f168201915b5050505050908060030180546102a590611d2b565b80601f01602080910402602001604051908101604052809291908181526020018280546102d190611d2b565b801561031e5780601f106102f35761010080835404028352916020019161031e565b820191906000526020600020905b81548152906001019060200180831161030157829003601f168201915b50505050509080600401805461033390611d2b565b80601f016020809104026020016040519081016040528092919081815260200182805461035f90611d2b565b80156103ac5780601f10610381576101008083540402835291602001916103ac565b820191906000526020600020905b81548152906001019060200180831161038f57829003601f168201915b505050506005830154600684015460078501546008860154600990960154949592949193509160ff16908a565b6000600182815481106103ee576103ee611d65565b90600052602060002090600c0201600901549050919050565b60006001828154811061041c5761041c611d65565b600091825260209091206001600c90920201908101549091506001600160a01b0316331461044957600080fd5b61045282611642565b60088101805460ff1916600190811790915560405183917f3eb1019d4df0cfbf58860f8430c0f74cf19cb395dec54bf46eb7b620bd8c3ca991610496913391611d7b565b60405180910390a25050565b60606001805480602002602001604051908101604052809291908181526020016000905b828210156107e45760008481526020908190206040805161018081018252600c86029092018054835260018101546001600160a01b0316938301939093526002830180549293929184019161051a90611d2b565b80601f016020809104026020016040519081016040528092919081815260200182805461054690611d2b565b80156105935780601f1061056857610100808354040283529160200191610593565b820191906000526020600020905b81548152906001019060200180831161057657829003601f168201915b505050505081526020016003820180546105ac90611d2b565b80601f01602080910402602001604051908101604052809291908181526020018280546105d890611d2b565b80156106255780601f106105fa57610100808354040283529160200191610625565b820191906000526020600020905b81548152906001019060200180831161060857829003601f168201915b5050505050815260200160048201805461063e90611d2b565b80601f016020809104026020016040519081016040528092919081815260200182805461066a90611d2b565b80156106b75780601f1061068c576101008083540402835291602001916106b7565b820191906000526020600020905b81548152906001019060200180831161069a57829003601f168201915b5050509183525050600582015460208201526006820154604082015260078201546060820152600882015460809091019060ff1660038111156106fc576106fc6118c3565b600381111561070d5761070d6118c3565b815260200160098201548152602001600a820180548060200260200160405190810160405280929190818152602001828054801561077457602002820191906000526020600020905b81546001600160a01b03168152600190910190602001808311610756575b50505050508152602001600b82018054806020026020016040519081016040528092919081815260200182805480156107cc57602002820191906000526020600020905b8154815260200190600101908083116107b8575b505050505081525050815260200190600101906104c6565b50505050905090565b60008551116108435760405162461bcd60e51b815260206004820152601760248201527f5469746c65206d757374206e6f7420626520656d70747900000000000000000060448201526064015b60405180910390fd5b60008451116108945760405162461bcd60e51b815260206004820152601d60248201527f4465736372697074696f6e206d757374206e6f7420626520656d707479000000604482015260640161083a565b60008351116108e55760405162461bcd60e51b815260206004820152601b60248201527f496d61676520555249206d757374206e6f7420626520656d7074790000000000604482015260640161083a565b600082116109355760405162461bcd60e51b815260206004820152601e60248201527f476f616c206d7573742062652067726561746572207468616e207a65726f0000604482015260640161083a565b42811161099c5760405162461bcd60e51b815260206004820152602f60248201527f456e64732074696d65206d7573742062652067726561746572207468616e207460448201526e68652063757272656e742074696d6560881b606482015260840161083a565b60016040518061018001604052806000808154809291906109bc90611db5565b90915550815233602082015260408101889052606081018790526080810186905260a081018590524260c082015260e08101849052610100016000815260200160008152602001600067ffffffffffffffff811115610a1d57610a1d611b37565b604051908082528060200260200182016040528015610a46578160200160208202803683370190505b5081526020016000604051908082528060200260200182016040528015610a77578160200160208202803683370190505b50905281546001808201845560009384526020938490208351600c909302019182559282015192810180546001600160a01b0319166001600160a01b039094169390931790925560408101519091906002820190610ad59082611e1c565b5060608201516003820190610aea9082611e1c565b5060808201516004820190610aff9082611e1c565b5060a0820151600582015560c0820151600682015560e0820151600782015561010082015160088201805460ff19166001836003811115610b4257610b426118c3565b021790555061012082015160098201556101408201518051610b6e91600a840191602090910190611734565b506101608201518051610b8b91600b840191602090910190611799565b5050506001600054610b9d9190611edc565b7f80d44ffac60fc8721db9216c79b4b66d26a90f61e2a32290581cbfb9c0776be433876000604051610bd193929190611ef5565b60405180910390a25050505050565b600154606090610c285760405162461bcd60e51b815260206004820152601360248201527227379031b0b6b830b4b3b739903337bab7321760691b604482015260640161083a565b600154600090600410610c3c576000610c4b565b600154610c4b90600490611edc565b600154909150600090610c5f908390611edc565b905060008167ffffffffffffffff811115610c7c57610c7c611b37565b604051908082528060200260200182016040528015610cb557816020015b610ca26117d4565b815260200190600190039081610c9a5790505b50905060005b8281101561103c57600180548290610cd4908390611edc565b610cde9190611edc565b81548110610cee57610cee611d65565b90600052602060002090600c020160405180610180016040529081600082015481526020016001820160009054906101000a90046001600160a01b03166001600160a01b03166001600160a01b03168152602001600282018054610d5190611d2b565b80601f0160208091040260200160405190810160405280929190818152602001828054610d7d90611d2b565b8015610dca5780601f10610d9f57610100808354040283529160200191610dca565b820191906000526020600020905b815481529060010190602001808311610dad57829003601f168201915b50505050508152602001600382018054610de390611d2b565b80601f0160208091040260200160405190810160405280929190818152602001828054610e0f90611d2b565b8015610e5c5780601f10610e3157610100808354040283529160200191610e5c565b820191906000526020600020905b815481529060010190602001808311610e3f57829003601f168201915b50505050508152602001600482018054610e7590611d2b565b80601f0160208091040260200160405190810160405280929190818152602001828054610ea190611d2b565b8015610eee5780601f10610ec357610100808354040283529160200191610eee565b820191906000526020600020905b815481529060010190602001808311610ed157829003601f168201915b5050509183525050600582015460208201526006820154604082015260078201546060820152600882015460809091019060ff166003811115610f3357610f336118c3565b6003811115610f4457610f446118c3565b815260200160098201548152602001600a8201805480602002602001604051908101604052809291908181526020018280548015610fab57602002820191906000526020600020905b81546001600160a01b03168152600190910190602001808311610f8d575b50505050508152602001600b820180548060200260200160405190810160405280929190818152602001828054801561100357602002820191906000526020600020905b815481526020019060010190808311610fef575b50505050508152505082828151811061101e5761101e611d65565b6020026020010181905250808061103490611db5565b915050610cbb565b509392505050565b60025460ff16156110885760405162461bcd60e51b815260206004820152600e60248201526d1499595b9d1c985b9d0818d85b1b60921b604482015260640161083a565b6002805460ff19166001908117909155805460009190839081106110ae576110ae611d65565b90600052602060002090600c02019050600034116111245760405162461bcd60e51b815260206004820152602d60248201527f436f6e747269627574696f6e20616d6f756e74206d757374206265206772656160448201526c746572207468616e207a65726f60981b606482015260840161083a565b60008160090154826005015461113a9190611edc565b905080341161116257348260090160008282546111579190611f30565b909155506111e89050565b600061116e8234611edc565b9050600061117c8234611edc565b604051909150339083156108fc029084906000818181858888f193505050501580156111ac573d6000803e3d6000fd5b50808460090160008282546111c19190611f30565b909155505060058401546009850154106111e55760088401805460ff191660021790555b50505b600a82018054600180820183556000928352602080842090920180546001600160a01b03191633908117909155600b860180549283018155845292829020349101819055604080519384529183015284917f0a4a91237423e0a1766a761c7cb029311d8b95d6b1b81db1b949a70c98b4e08e910160405180910390a250506002805460ff1916905550565b6000611281426103e8611f43565b61128d906103e8611f30565b905090565b60008060608060606000806000806000606080600060018e815481106112ba576112ba611d65565b90600052602060002090600c020160405180610180016040529081600082015481526020016001820160009054906101000a90046001600160a01b03166001600160a01b03166001600160a01b0316815260200160028201805461131d90611d2b565b80601f016020809104026020016040519081016040528092919081815260200182805461134990611d2b565b80156113965780601f1061136b57610100808354040283529160200191611396565b820191906000526020600020905b81548152906001019060200180831161137957829003601f168201915b505050505081526020016003820180546113af90611d2b565b80601f01602080910402602001604051908101604052809291908181526020018280546113db90611d2b565b80156114285780601f106113fd57610100808354040283529160200191611428565b820191906000526020600020905b81548152906001019060200180831161140b57829003601f168201915b5050505050815260200160048201805461144190611d2b565b80601f016020809104026020016040519081016040528092919081815260200182805461146d90611d2b565b80156114ba5780601f1061148f576101008083540402835291602001916114ba565b820191906000526020600020905b81548152906001019060200180831161149d57829003601f168201915b5050509183525050600582015460208201526006820154604082015260078201546060820152600882015460809091019060ff1660038111156114ff576114ff6118c3565b6003811115611510576115106118c3565b815260200160098201548152602001600a820180548060200260200160405190810160405280929190818152602001828054801561157757602002820191906000526020600020905b81546001600160a01b03168152600190910190602001808311611559575b50505050508152602001600b82018054806020026020016040519081016040528092919081815260200182805480156115cf57602002820191906000526020600020905b8154815260200190600101908083116115bb575b5050505050815250509050806000015181602001518260400151836060015184608001518560a001518660c001518760e001518861010001518961012001518a61014001518b61016001519c509c509c509c509c509c509c509c509c509c509c509c505091939597999b5091939597999b565b60006001828154811061165757611657611d65565b90600052602060002090600c0201905060005b600a82015481101561172f57600082600a01828154811061168d5761168d611d65565b6000918252602082200154600b850180546001600160a01b03909216935090849081106116bc576116bc611d65565b60009182526020822001546040519092506001600160a01b0384169183156108fc02918491818181858888f193505050501580156116fe573d6000803e3d6000fd5b50808460090160008282546117139190611edc565b925050819055505050808061172790611db5565b91505061166a565b505050565b828054828255906000526020600020908101928215611789579160200282015b8281111561178957825182546001600160a01b0319166001600160a01b03909116178255602090920191600190910190611754565b5061179592915061184f565b5090565b828054828255906000526020600020908101928215611789579160200282015b828111156117895782518255916020019190600101906117b9565b6040518061018001604052806000815260200160006001600160a01b0316815260200160608152602001606081526020016060815260200160008152602001600081526020016000815260200160006003811115611834576118346118c3565b81526020016000815260200160608152602001606081525090565b5b808211156117955760008155600101611850565b60006020828403121561187657600080fd5b5035919050565b6000815180845260005b818110156118a357602081850181015186830182015201611887565b506000602082860101526020601f19601f83011685010191505092915050565b634e487b7160e01b600052602160045260246000fd5b600481106118f757634e487b7160e01b600052602160045260246000fd5b9052565b8a81526001600160a01b038a166020820152610140604082018190526000906119268382018c61187d565b9050828103606084015261193a818b61187d565b9050828103608084015261194e818a61187d565b9150508660a08301528560c08301528460e08301526119716101008301856118d9565b826101208301529b9a5050505050505050505050565b600081518084526020808501945080840160005b838110156119c05781516001600160a01b03168752958201959082019060010161199b565b509495945050505050565b600081518084526020808501945080840160005b838110156119c0578151875295820195908201906001016119df565b60006020808301818452808551808352604092508286019150828160051b87010184880160005b83811015611b2957603f19898403018552815180518452878101516001600160a01b0316888501528681015161018088860181905290611a648287018261187d565b91505060608083015186830382880152611a7e838261187d565b9250505060808083015186830382880152611a99838261187d565b9250505060a080830151818701525060c080830151818701525060e080830151818701525061010080830151611ad1828801826118d9565b505061012082810151908601526101408083015186830382880152611af68382611987565b925050506101608083015192508582038187015250611b1581836119cb565b968901969450505090860190600101611a22565b509098975050505050505050565b634e487b7160e01b600052604160045260246000fd5b600082601f830112611b5e57600080fd5b813567ffffffffffffffff80821115611b7957611b79611b37565b604051601f8301601f19908116603f01168101908282118183101715611ba157611ba1611b37565b81604052838152866020858801011115611bba57600080fd5b836020870160208301376000602085830101528094505050505092915050565b600080600080600060a08688031215611bf257600080fd5b853567ffffffffffffffff80821115611c0a57600080fd5b611c1689838a01611b4d565b96506020880135915080821115611c2c57600080fd5b611c3889838a01611b4d565b95506040880135915080821115611c4e57600080fd5b50611c5b88828901611b4d565b9598949750949560608101359550608001359392505050565b8c81526001600160a01b038c16602082015261018060408201819052600090611c9f8382018e61187d565b90508281036060840152611cb3818d61187d565b90508281036080840152611cc7818c61187d565b90508960a08401528860c08401528760e0840152611ce96101008401886118d9565b85610120840152828103610140840152611d038186611987565b9050828103610160840152611d1881856119cb565b9f9e505050505050505050505050505050565b600181811c90821680611d3f57607f821691505b602082108103611d5f57634e487b7160e01b600052602260045260246000fd5b50919050565b634e487b7160e01b600052603260045260246000fd5b6001600160a01b038316815260408101611d9860208301846118d9565b9392505050565b634e487b7160e01b600052601160045260246000fd5b600060018201611dc757611dc7611d9f565b5060010190565b601f82111561172f57600081815260208120601f850160051c81016020861015611df55750805b601f850160051c820191505b81811015611e1457828155600101611e01565b505050505050565b815167ffffffffffffffff811115611e3657611e36611b37565b611e4a81611e448454611d2b565b84611dce565b602080601f831160018114611e7f5760008415611e675750858301515b600019600386901b1c1916600185901b178555611e14565b600085815260208120601f198616915b82811015611eae57888601518255948401946001909101908401611e8f565b5085821015611ecc5787850151600019600388901b60f8161c191681555b5050505050600190811b01905550565b81810381811115611eef57611eef611d9f565b92915050565b6001600160a01b0384168152606060208201819052600090611f199083018561187d565b9050611f2860408301846118d9565b949350505050565b80820180821115611eef57611eef611d9f565b8082028115828204841417611eef57611eef611d9f56fea2646970667358221220e309d448cf96310bfdda62c3eb8263129ddac74aea425417535ee95f40a626af64736f6c63430008110033",
  "linkReferences": {},
  "deployedLinkReferences": {}
}